S0150000547261666669635F4C696768742E73726563F9
S113000071C0000081C000007FC000007DC00000FE
S11300107BC0000079C0000077C0000075C00000FC
S113002073C0000071C000006FC000006DC000000C
S11300306BC0000069C0000067C0000065C000001C
S113004063C0000061C000005FC000005DC000002C
S11300505BC0000059C0000057C0000055C000003C
S113006053C0000051C000004FC000004DC000004C
S11300704BC0000049C0000047C0000045C000005C
S113008043C0000041C000003FC000003DC000006C
S11300903BC0000039C0000037C0000035C000007C
S11300A033C0000031C000002FC000002DC000008C
S11300B02BC0000029C0000027C0000025C000009C
S11300C023C0000021C000001FC000001DC00000AC
S11300D01BC0000019C0000017C0000015C00000BC
S11300E013C0000011241FBECFEFD1E2DEBFCDBF8D
S11300F000E00CBF22E0A0E0B2E001C01D92A030FD
S1130100B207E1F702D082C07BCF4AD081B18760C9
S113011081B982B1887F82B984E082B966D080E1F6
S113012097E21FD082E082B980EA9FE01AD081E092
S113013082B980ED97E015D049D088E893E111D0D9
S1130140C1E009C043D084EF91E00BD04ED084EFDE
S113015091E007D0CF5FCB30A8F380ED97E001D0DA
S1130160DBCFFC0141E050E017C096E096BD95B5A9
S1130170936095BDA89BFECF95B59C7F95BD95B327
S113018065B321E030E002C0220F331F6A95E2F725
S1130190292B25BB4F5F5F4FE417F50730F7089510
S11301A084B584BD85B585BD8DB1806E8DB98DB1A5
S11301B08F718EB9E0E8F0E0808181608083808176
S11301C08C6F808380818360808308958FE790E0C3
S11301D0909389008093880090938B0080938A0089
S11301E090938D0080938C00089587E390E0909322
S11301F08900809388008FE790E090938B00809330
S11302008A0010928D0010928C000895F894FFCF0C
S9030000FC
