S0150000547261666669635F4C696768742E73726563F9
S113000071C0000081C000007FC000007DC00000FE
S11300107BC0000079C0000077C0000075C00000FC
S113002073C0000071C000006FC000006DC000000C
S11300306BC0000069C0000067C0000065C000001C
S113004063C0000061C000005FC000005DC000002C
S11300505BC0000059C0000057C0000055C000003C
S113006053C0000051C000004FC000004DC000004C
S11300704BC0000049C0000047C0000045C000005C
S113008043C0000041C000003FC000003DC000006C
S11300903BC0000039C0000037C0000035C000007C
S11300A033C0000031C000002FC000002DC000008C
S11300B02BC0000029C0000027C0000025C000009C
S11300C023C0000021C000001FC000001DC00000AC
S11300D01BC0000019C0000017C0000015C00000BC
S11300E013C0000011241FBECFEFD1E2DEBFCDBF8D
S11300F000E00CBF22E0A0E0B2E001C01D92A030FD
S1130100B207E1F702D036C07BCF81B1876081B9F5
S113011082B1887F82B984E082B988EE93E00BD003
S113012082E082B988EE93E006D081E082B988EE5D
S113013093E001D0FFCFFC0141E050E017C096E00E
S113014096BD95B5936095BDA89BFECF95B59C7F54
S113015095BD95B365B321E030E002C0220F331F93
S11301606A95E2F7292B25BB4F5F5F4FE417F5072C
S10B017030F70895F894FFCF65
S9030000FC
