S0150000547261666669635F4C696768742E73726563F9
S113000071C0000081C000007FC000007DC00000FE
S11300107BC0000086C0000077C0000075C00000EF
S113002073C0000071C000006FC000006DC000000C
S11300306BC0000069C0000067C0000065C000001C
S113004063C0000061C000005FC000005DC000002C
S11300505BC0000059C0000057C0000055C000003C
S113006053C0000051C000004FC000004DC000004C
S11300704BC0000049C0000047C0000045C000005C
S113008043C0000041C000003FC000003DC000006C
S11300903BC0000039C0000037C0000035C000007C
S11300A033C0000031C000002FC000002DC000008C
S11300B02BC0000029C0000027C0000025C000009C
S11300C023C0000021C000001FC000001DC00000AC
S11300D01BC0000019C0000017C0000015C00000BC
S11300E013C0000011241FBECFEFD1E2DEBFCDBF8D
S11300F000E00CBF22E0A0E0B2E001C01D92A130FC
S1130100B207E1F724D0C6C07BCF8DB18F7E8DB905
S11301108EB180618EB9EAE6F0E0808183608083ED
S113012008951F920F920FB60F9211248F9381E0BE
S1130130809300028F910F900FBE0F901F9018951F
S113014081B1876081B982B1887F82B90895DDDF8A
S11301505CD0F6DF8DB380618DBB84E082B97CD046
S113016010920002809100028823E1F388EE93E06C
S11301702DD082E082B980EA9FE028D081E082B964
S113018080ED97E023D059D0109200028DB38F7E7A
S11301908DBB88E893E11AD08DB380618DBBC1E03B
S11301A009C05AD084EF91E011D067D084EF91E078
S11301B00DD0CF5FCA30A8F34FD080ED97E006D0C2
S11301C084E082B980E197E201D0CCCFFC0141E028
S11301D050E017C096E096BD95B5936095BDA89B79
S11301E0FECF95B59C7F95BD95B365B321E030E016
S11301F002C0220F331F6A95E2F7292B25BB4F5FFC
S11302005F4FE417F50730F7089584B584BD85B5CD
S113021085BD84B1806E84B984B18F7185B9E0E8FD
S1130220F0E080818160808380818C6F8083E1E84D
S1130230F0E080818360808308958FE790E090935D
S113024089008093880090938B0080938A00909318
S11302508D0080938C0008958FE790E0909389003F
S11302608093880087E090E090938B0080938A00CD
S113027010928D0010928C000895109289001092B3
S1130280880010928B0010928A0010928D001092B8
S10B02908C000895F894FFCFDF
S9030000FC
